{
  "contractName": "ProofOfExistence2",
  "abi": [
    {
      "constant": false,
      "inputs": [
        {
          "name": "_document",
          "type": "string"
        }
      ],
      "name": "notarize",
      "outputs": [],
      "payable": false,
      "stateMutability": "nonpayable",
      "type": "function"
    },
    {
      "constant": true,
      "inputs": [
        {
          "name": "_document",
          "type": "string"
        }
      ],
      "name": "proofFor",
      "outputs": [
        {
          "name": "",
          "type": "bytes32"
        }
      ],
      "payable": false,
      "stateMutability": "pure",
      "type": "function"
    },
    {
      "constant": true,
      "inputs": [
        {
          "name": "_document",
          "type": "string"
        }
      ],
      "name": "checkDocument",
      "outputs": [
        {
          "name": "",
          "type": "bool"
        }
      ],
      "payable": false,
      "stateMutability": "view",
      "type": "function"
    },
    {
      "constant": true,
      "inputs": [
        {
          "name": "_proof",
          "type": "bytes32"
        }
      ],
      "name": "hasProof",
      "outputs": [
        {
          "name": "",
          "type": "bool"
        }
      ],
      "payable": false,
      "stateMutability": "view",
      "type": "function"
    }
  ],
  "bytecode": "0x608060405234801561001057600080fd5b506103c3806100206000396000f300608060405260043610610062576000357c0100000000000000000000000000000000000000000000000000000000900463ffffffff16806353fb9233146100675780637183616c146100e8578063e3d1e6d614610151578063f6c1acdf1461019a575b600080fd5b34801561007357600080fd5b506100ce600480360381019080803590602001908201803590602001908080601f016020809104026020016040519081016040528093929190818152602001838380828437820191505050505050919291929050505061021f565b604051808215151515815260200191505060405180910390f35b3480156100f457600080fd5b5061014f600480360381019080803590602001908201803590602001908080601f016020809104026020016040519081016040528093929190818152602001838380828437820191505050505050919291929050505061023e565b005b34801561015d57600080fd5b506101806004803603810190808035600019169060200190929190505050610258565b604051808215151515815260200191505060405180910390f35b3480156101a657600080fd5b50610201600480360381019080803590602001908201803590602001908080601f0160208091040260200160405190810160405280939291908181526020018383808284378201915050505050509192919290505050610289565b60405180826000191660001916815260200191505060405180910390f35b60008061022b83610289565b905061023681610258565b915050919050565b600061024982610289565b905061025481610361565b5050565b6000806000836000191660001916815260200190815260200160002060009054906101000a900460ff169050919050565b6000816040516020018082805190602001908083835b6020831015156102c4578051825260208201915060208101905060208303925061029f565b6001836020036101000a0380198251168184511680821785525050505050509050019150506040516020818303038152906040526040518082805190602001908083835b60208310151561032d5780518252602082019150602081019050602083039250610308565b6001836020036101000a03801982511681845116808217855250505050505090500191505060405180910390209050919050565b6001600080836000191660001916815260200190815260200160002060006101000a81548160ff021916908315150217905550505600a165627a7a72305820a3c555a5fbd3abd51e855ce19a1e78e639c72bd5f42621ceb67d9f3d4b39e2d30029",
  "source": "pragma solidity ^0.4.4;\r\n\r\n// Proof of Existence version 2\r\ncontract ProofOfExistence2 {\r\n  \r\n  // mapping hash\r\n  mapping (bytes32 => bool) private proofs;\r\n  \r\n  // store a proof of existence in the contract state\r\n  function storeProof(bytes32 proof) private {\r\n\tproofs[proof] = true;\r\n  }\r\n  // calculate and store the proof for a document\r\n  function notarize(string _document) public {\r\n    bytes32 _proofFile = proofFor(_document);\r\n    storeProof(_proofFile);\r\n  }\r\n  // helper function to get a document's keccak256\r\n  function proofFor(string _document) public pure returns (bytes32) {\r\n    return keccak256(abi.encodePacked(_document));\r\n  }\r\n  // check if a document has been notarized\r\n  function checkDocument(string _document) public view returns (bool) {\r\n    bytes32 _proof = proofFor(_document);\r\n    return hasProof(_proof);\r\n  }\r\n  // returns true if proof is stored\r\n  function hasProof(bytes32 _proof) public view returns(bool) {\r\n    return proofs[_proof];\r\n  }\r\n}",
  "sourcePath": "C:\\Users\\lenovo\\Programming\\Ethereum\\copy pierwszy-kontrakt\\pierwszy-kontrakt\\contracts\\ProofOfExistence2.sol",
  "compiler": {
    "name": "solc",
    "version": "0.4.24+commit.e67f0147.Emscripten.clang"
  },
  "schemaVersion": "2.0.1",
  "updatedAt": "2019-01-25T05:16:00.205Z"
}